{
  "contracts/Uppsala.sol": {
    "Uppsala": {
      "abi": [
        {
          "inputs": [
            {
              "internalType": "address",
              "name": "_admin",
              "type": "address"
            }
          ],
          "stateMutability": "nonpayable",
          "type": "constructor"
        },
        {
          "anonymous": false,
          "inputs": [
            {
              "indexed": false,
              "internalType": "address",
              "name": "",
              "type": "address"
            }
          ],
          "name": "SetAddrData",
          "type": "event"
        },
        {
          "anonymous": false,
          "inputs": [
            {
              "indexed": false,
              "internalType": "address",
              "name": "",
              "type": "address"
            }
          ],
          "name": "SetAdmin",
          "type": "event"
        },
        {
          "anonymous": false,
          "inputs": [
            {
              "indexed": false,
              "internalType": "string",
              "name": "",
              "type": "string"
            }
          ],
          "name": "SetUrlData",
          "type": "event"
        },
        {
          "inputs": [],
          "name": "admin",
          "outputs": [
            {
              "internalType": "address",
              "name": "",
              "type": "address"
            }
          ],
          "stateMutability": "view",
          "type": "function"
        },
        {
          "inputs": [
            {
              "internalType": "address",
              "name": "_cryptoAddr",
              "type": "address"
            }
          ],
          "name": "checCryptokAddr",
          "outputs": [
            {
              "components": [
                {
                  "internalType": "address",
                  "name": "x_pattern_value",
                  "type": "address"
                },
                {
                  "internalType": "string[]",
                  "name": "labels",
                  "type": "string[]"
                },
                {
                  "internalType": "string",
                  "name": "category",
                  "type": "string"
                },
                {
                  "internalType": "string",
                  "name": "subType",
                  "type": "string"
                }
              ],
              "internalType": "struct STIX_CRYPTO_ADDR",
              "name": "",
              "type": "tuple"
            }
          ],
          "stateMutability": "view",
          "type": "function"
        },
        {
          "inputs": [
            {
              "internalType": "string",
              "name": "_addr",
              "type": "string"
            }
          ],
          "name": "checkAddr",
          "outputs": [
            {
              "components": [
                {
                  "internalType": "string",
                  "name": "x_pattern_value",
                  "type": "string"
                },
                {
                  "internalType": "string[]",
                  "name": "labels",
                  "type": "string[]"
                },
                {
                  "internalType": "string",
                  "name": "category",
                  "type": "string"
                },
                {
                  "internalType": "string",
                  "name": "subType",
                  "type": "string"
                }
              ],
              "internalType": "struct STIX_ADDR",
              "name": "",
              "type": "tuple"
            }
          ],
          "stateMutability": "view",
          "type": "function"
        },
        {
          "inputs": [
            {
              "internalType": "string",
              "name": "_addr",
              "type": "string"
            },
            {
              "internalType": "string[]",
              "name": "_labels",
              "type": "string[]"
            },
            {
              "internalType": "string",
              "name": "_category",
              "type": "string"
            },
            {
              "internalType": "string",
              "name": "_subType",
              "type": "string"
            }
          ],
          "name": "setAddrData",
          "outputs": [],
          "stateMutability": "nonpayable",
          "type": "function"
        },
        {
          "inputs": [
            {
              "internalType": "address",
              "name": "_newAdmin",
              "type": "address"
            }
          ],
          "name": "setAdmin",
          "outputs": [],
          "stateMutability": "nonpayable",
          "type": "function"
        },
        {
          "inputs": [
            {
              "internalType": "address",
              "name": "_cryptoAddr",
              "type": "address"
            },
            {
              "internalType": "string[]",
              "name": "_labels",
              "type": "string[]"
            },
            {
              "internalType": "string",
              "name": "_category",
              "type": "string"
            },
            {
              "internalType": "string",
              "name": "_subType",
              "type": "string"
            }
          ],
          "name": "setCryptoAddrData",
          "outputs": [],
          "stateMutability": "nonpayable",
          "type": "function"
        }
      ],
      "evm": {
        "bytecode": {
          "linkReferences": {},
          "object": "60806040523480156200001157600080fd5b5060405162001e5038038062001e5083398181016040528101906200003791906200015a565b600073ffffffffffffffffffffffffffffffffffffffff168173ffffffffffffffffffffffffffffffffffffffff1603620000a9576040517f08c379a0000000000000000000000000000000000000000000000000000000008152600401620000a090620001ed565b60405180910390fd5b806000806101000a81548173ffffffffffffffffffffffffffffffffffffffff021916908373ffffffffffffffffffffffffffffffffffffffff160217905550506200020f565b600080fd5b600073ffffffffffffffffffffffffffffffffffffffff82169050919050565b60006200012282620000f5565b9050919050565b620001348162000115565b81146200014057600080fd5b50565b600081519050620001548162000129565b92915050565b600060208284031215620001735762000172620000f0565b5b6000620001838482850162000143565b91505092915050565b600082825260208201905092915050565b7f61646d696e2073686f756c642062652070726f76696465640000000000000000600082015250565b6000620001d56018836200018c565b9150620001e2826200019d565b602082019050919050565b600060208201905081810360008301526200020881620001c6565b9050919050565b611c31806200021f6000396000f3fe608060405234801561001057600080fd5b50600436106100625760003560e01c8063171cb379146100675780634a49279514610083578063704b6c021461009f578063b020c8f4146100bb578063c1c6a1a9146100eb578063f851a4401461011b575b600080fd5b610081600480360381019061007c91906110bf565b610139565b005b61009d600480360381019061009891906111f4565b610371565b005b6100b960048036038101906100b491906112af565b610680565b005b6100d560048036038101906100d091906112dc565b6107a8565b6040516100e291906114de565b60405180910390f35b610105600480360381019061010091906112af565b610a6f565b6040516101129190611580565b60405180910390f35b610123610d1b565b60405161013091906115b1565b60405180910390f35b60008054906101000a900473ffffffffffffffffffffffffffffffffffffffff1673ffffffffffffffffffffffffffffffffffffffff163373ffffffffffffffffffffffffffffffffffffffff16146101c7576040517f08c379a00000000000000000000000000000000000000000000000000000000081526004016101be90611629565b60405180910390fd5b600084510361020b576040517f08c379a000000000000000000000000000000000000000000000000000000000815260040161020290611695565b60405180910390fd5b600083510361024f576040517f08c379a000000000000000000000000000000000000000000000000000000000815260040161024690611701565b60405180910390fd5b6000825103610293576040517f08c379a000000000000000000000000000000000000000000000000000000000815260040161028a9061176d565b60405180910390fd5b6040518060800160405280858152602001848152602001838152602001828152506002856040516102c491906117c9565b908152602001604051809103902060008201518160000190816102e791906119f6565b506020820151816001019080519060200190610304929190610d3f565b50604082015181600201908161031a91906119f6565b50606082015181600301908161033091906119f6565b509050507fe1e73cea801405ffb0b85349c05bd8c9f98aed462670e1b231c289fc5dbd7f37846040516103639190611b01565b60405180910390a150505050565b60008054906101000a900473ffffffffffffffffffffffffffffffffffffffff1673ffffffffffffffffffffffffffffffffffffffff163373ffffffffffffffffffffffffffffffffffffffff16146103ff576040517f08c379a00000000000000000000000000000000000000000000000000000000081526004016103f690611629565b60405180910390fd5b600073ffffffffffffffffffffffffffffffffffffffff168473ffffffffffffffffffffffffffffffffffffffff160361046e576040517f08c379a000000000000000000000000000000000000000000000000000000000815260040161046590611b6f565b60405180910390fd5b60008351036104b2576040517f08c379a00000000000000000000000000000000000000000000000000000000081526004016104a990611701565b60405180910390fd5b60008251036104f6576040517f08c379a00000000000000000000000000000000000000000000000000000000081526004016104ed9061176d565b60405180910390fd5b600081510361053a576040517f08c379a000000000000000000000000000000000000000000000000000000000815260040161053190611bdb565b60405180910390fd5b60405180608001604052808573ffffffffffffffffffffffffffffffffffffffff16815260200184815260200183815260200182815250600160008673ffffffffffffffffffffffffffffffffffffffff1673ffffffffffffffffffffffffffffffffffffffff16815260200190815260200160002060008201518160000160006101000a81548173ffffffffffffffffffffffffffffffffffffffff021916908373ffffffffffffffffffffffffffffffffffffffff1602179055506020820151816001019080519060200190610613929190610d3f565b50604082015181600201908161062991906119f6565b50606082015181600301908161063f91906119f6565b509050507fd9664f79fcd2597f70c71280dbf8fccb5493b9206a42320187db26b24c4845698460405161067291906115b1565b60405180910390a150505050565b60008054906101000a900473ffffffffffffffffffffffffffffffffffffffff1673ffffffffffffffffffffffffffffffffffffffff163373ffffffffffffffffffffffffffffffffffffffff161461070e576040517f08c379a000000000000000000000000000000000000000000000000000000000815260040161070590611629565b60405180910390fd5b806000806101000a81548173ffffffffffffffffffffffffffffffffffffffff021916908373ffffffffffffffffffffffffffffffffffffffff1602179055507f5a272403b402d892977df56625f4164ccaf70ca3863991c43ecfe76a6905b0a160008054906101000a900473ffffffffffffffffffffffffffffffffffffffff1660405161079d91906115b1565b60405180910390a150565b6107b0610d98565b6002826040516107c091906117c9565b90815260200160405180910390206040518060800160405290816000820180546107e99061180f565b80601f01602080910402602001604051908101604052809291908181526020018280546108159061180f565b80156108625780601f1061083757610100808354040283529160200191610862565b820191906000526020600020905b81548152906001019060200180831161084557829003601f168201915b5050505050815260200160018201805480602002602001604051908101604052809291908181526020016000905b8282101561093c5783829060005260206000200180546108af9061180f565b80601f01602080910402602001604051908101604052809291908181526020018280546108db9061180f565b80156109285780601f106108fd57610100808354040283529160200191610928565b820191906000526020600020905b81548152906001019060200180831161090b57829003601f168201915b505050505081526020019060010190610890565b5050505081526020016002820180546109549061180f565b80601f01602080910402602001604051908101604052809291908181526020018280546109809061180f565b80156109cd5780601f106109a2576101008083540402835291602001916109cd565b820191906000526020600020905b8154815290600101906020018083116109b057829003601f168201915b505050505081526020016003820180546109e69061180f565b80601f0160208091040260200160405190810160405280929190818152602001828054610a129061180f565b8015610a5f5780601f10610a3457610100808354040283529160200191610a5f565b820191906000526020600020905b815481529060010190602001808311610a4257829003601f168201915b5050505050815250509050919050565b610a77610dc0565b600160008373ffffffffffffffffffffffffffffffffffffffff1673ffffffffffffffffffffffffffffffffffffffff1681526020019081526020016000206040518060800160405290816000820160009054906101000a900473ffffffffffffffffffffffffffffffffffffffff1673ffffffffffffffffffffffffffffffffffffffff1673ffffffffffffffffffffffffffffffffffffffff16815260200160018201805480602002602001604051908101604052809291908181526020016000905b82821015610be8578382906000526020600020018054610b5b9061180f565b80601f0160208091040260200160405190810160405280929190818152602001828054610b879061180f565b8015610bd45780601f10610ba957610100808354040283529160200191610bd4565b820191906000526020600020905b815481529060010190602001808311610bb757829003601f168201915b505050505081526020019060010190610b3c565b505050508152602001600282018054610c009061180f565b80601f0160208091040260200160405190810160405280929190818152602001828054610c2c9061180f565b8015610c795780601f10610c4e57610100808354040283529160200191610c79565b820191906000526020600020905b815481529060010190602001808311610c5c57829003601f168201915b50505050508152602001600382018054610c929061180f565b80601f0160208091040260200160405190810160405280929190818152602001828054610cbe9061180f565b8015610d0b5780601f10610ce057610100808354040283529160200191610d0b565b820191906000526020600020905b815481529060010190602001808311610cee57829003601f168201915b5050505050815250509050919050565b60008054906101000a900473ffffffffffffffffffffffffffffffffffffffff1681565b828054828255906000526020600020908101928215610d87579160200282015b82811115610d86578251829081610d7691906119f6565b5091602001919060010190610d5f565b5b509050610d949190610dfe565b5090565b6040518060800160405280606081526020016060815260200160608152602001606081525090565b6040518060800160405280600073ffffffffffffffffffffffffffffffffffffffff1681526020016060815260200160608152602001606081525090565b5b80821115610e1e5760008181610e159190610e22565b50600101610dff565b5090565b508054610e2e9061180f565b6000825580601f10610e405750610e5f565b601f016020900490600052602060002090810190610e5e9190610e62565b5b50565b5b80821115610e7b576000816000905550600101610e63565b5090565b6000604051905090565b600080fd5b600080fd5b600080fd5b600080fd5b6000601f19601f8301169050919050565b7f4e487b7100000000000000000000000000000000000000000000000000000000600052604160045260246000fd5b610ee682610e9d565b810181811067ffffffffffffffff82111715610f0557610f04610eae565b5b80604052505050565b6000610f18610e7f565b9050610f248282610edd565b919050565b600067ffffffffffffffff821115610f4457610f43610eae565b5b610f4d82610e9d565b9050602081019050919050565b82818337600083830152505050565b6000610f7c610f7784610f29565b610f0e565b905082815260208101848484011115610f9857610f97610e98565b5b610fa3848285610f5a565b509392505050565b600082601f830112610fc057610fbf610e93565b5b8135610fd0848260208601610f69565b91505092915050565b600067ffffffffffffffff821115610ff457610ff3610eae565b5b602082029050602081019050919050565b600080fd5b600061101d61101884610fd9565b610f0e565b905080838252602082019050602084028301858111156110405761103f611005565b5b835b8181101561108757803567ffffffffffffffff81111561106557611064610e93565b5b8086016110728982610fab565b85526020850194505050602081019050611042565b5050509392505050565b600082601f8301126110a6576110a5610e93565b5b81356110b684826020860161100a565b91505092915050565b600080600080608085870312156110d9576110d8610e89565b5b600085013567ffffffffffffffff8111156110f7576110f6610e8e565b5b61110387828801610fab565b945050602085013567ffffffffffffffff81111561112457611123610e8e565b5b61113087828801611091565b935050604085013567ffffffffffffffff81111561115157611150610e8e565b5b61115d87828801610fab565b925050606085013567ffffffffffffffff81111561117e5761117d610e8e565b5b61118a87828801610fab565b91505092959194509250565b600073ffffffffffffffffffffffffffffffffffffffff82169050919050565b60006111c182611196565b9050919050565b6111d1816111b6565b81146111dc57600080fd5b50565b6000813590506111ee816111c8565b92915050565b6000806000806080858703121561120e5761120d610e89565b5b600061121c878288016111df565b945050602085013567ffffffffffffffff81111561123d5761123c610e8e565b5b61124987828801611091565b935050604085013567ffffffffffffffff81111561126a57611269610e8e565b5b61127687828801610fab565b925050606085013567ffffffffffffffff81111561129757611296610e8e565b5b6112a387828801610fab565b91505092959194509250565b6000602082840312156112c5576112c4610e89565b5b60006112d3848285016111df565b91505092915050565b6000602082840312156112f2576112f1610e89565b5b600082013567ffffffffffffffff8111156113105761130f610e8e565b5b61131c84828501610fab565b91505092915050565b600081519050919050565b600082825260208201905092915050565b60005b8381101561135f578082015181840152602081019050611344565b60008484015250505050565b600061137682611325565b6113808185611330565b9350611390818560208601611341565b61139981610e9d565b840191505092915050565b600081519050919050565b600082825260208201905092915050565b6000819050602082019050919050565b60006113dc838361136b565b905092915050565b6000602082019050919050565b60006113fc826113a4565b61140681856113af565b935083602082028501611418856113c0565b8060005b85811015611454578484038952815161143585826113d0565b9450611440836113e4565b925060208a0199505060018101905061141c565b50829750879550505050505092915050565b60006080830160008301518482036000860152611483828261136b565b9150506020830151848203602086015261149d82826113f1565b915050604083015184820360408601526114b7828261136b565b915050606083015184820360608601526114d1828261136b565b9150508091505092915050565b600060208201905081810360008301526114f88184611466565b905092915050565b611509816111b6565b82525050565b60006080830160008301516115276000860182611500565b506020830151848203602086015261153f82826113f1565b91505060408301518482036040860152611559828261136b565b91505060608301518482036060860152611573828261136b565b9150508091505092915050565b6000602082019050818103600083015261159a818461150f565b905092915050565b6115ab816111b6565b82525050565b60006020820190506115c660008301846115a2565b92915050565b600082825260208201905092915050565b7f4f6e6c792061646d696e2063616e206578656375746500000000000000000000600082015250565b60006116136016836115cc565b915061161e826115dd565b602082019050919050565b6000602082019050818103600083015261164281611606565b9050919050565b7f75726c2073686f756c642062652070726f766964656400000000000000000000600082015250565b600061167f6016836115cc565b915061168a82611649565b602082019050919050565b600060208201905081810360008301526116ae81611672565b9050919050565b7f6c6162656c732073686f756c642062652070726f766964656400000000000000600082015250565b60006116eb6019836115cc565b91506116f6826116b5565b602082019050919050565b6000602082019050818103600083015261171a816116de565b9050919050565b7f63617465676f72792073686f756c642062652070726f76696465640000000000600082015250565b6000611757601b836115cc565b915061176282611721565b602082019050919050565b600060208201905081810360008301526117868161174a565b9050919050565b600081905092915050565b60006117a382611325565b6117ad818561178d565b93506117bd818560208601611341565b80840191505092915050565b60006117d58284611798565b915081905092915050565b7f4e487b7100000000000000000000000000000000000000000000000000000000600052602260045260246000fd5b6000600282049050600182168061182757607f821691505b60208210810361183a576118396117e0565b5b50919050565b60008190508160005260206000209050919050565b60006020601f8301049050919050565b600082821b905092915050565b6000600883026118a27fffffffffffffffffffffffffffffffffffffffffffffffffffffffffffffffff82611865565b6118ac8683611865565b95508019841693508086168417925050509392505050565b6000819050919050565b6000819050919050565b60006118f36118ee6118e9846118c4565b6118ce565b6118c4565b9050919050565b6000819050919050565b61190d836118d8565b611921611919826118fa565b848454611872565b825550505050565b600090565b611936611929565b611941818484611904565b505050565b5b818110156119655761195a60008261192e565b600181019050611947565b5050565b601f8211156119aa5761197b81611840565b61198484611855565b81016020851015611993578190505b6119a761199f85611855565b830182611946565b50505b505050565b600082821c905092915050565b60006119cd600019846008026119af565b1980831691505092915050565b60006119e683836119bc565b9150826002028217905092915050565b6119ff82611325565b67ffffffffffffffff811115611a1857611a17610eae565b5b611a22825461180f565b611a2d828285611969565b600060209050601f831160018114611a605760008415611a4e578287015190505b611a5885826119da565b865550611ac0565b601f198416611a6e86611840565b60005b82811015611a9657848901518255600182019150602085019450602081019050611a71565b86831015611ab35784890151611aaf601f8916826119bc565b8355505b6001600288020188555050505b505050505050565b6000611ad382611325565b611add81856115cc565b9350611aed818560208601611341565b611af681610e9d565b840191505092915050565b60006020820190508181036000830152611b1b8184611ac8565b905092915050565b7f616464726573732073686f756c642062652070726f7669646564000000000000600082015250565b6000611b59601a836115cc565b9150611b6482611b23565b602082019050919050565b60006020820190508181036000830152611b8881611b4c565b9050919050565b7f737562547970652073686f756c642062652070726f7669646564000000000000600082015250565b6000611bc5601a836115cc565b9150611bd082611b8f565b602082019050919050565b60006020820190508181036000830152611bf481611bb8565b905091905056fea264697066735822122004b9bdd0b3408147a1a95ca14a3f23fb0ad2567460b9b122c9c9607c1067171a64736f6c63430008180033",
          "opcodes": "PUSH1 0x80 PUSH1 0x40 MSTORE CALLVALUE DUP1 ISZERO PUSH3 0x11 JUMPI PUSH1 0x0 DUP1 REVERT JUMPDEST POP PUSH1 0x40 MLOAD PUSH3 0x1E50 CODESIZE SUB DUP1 PUSH3 0x1E50 DUP4 CODECOPY DUP2 DUP2 ADD PUSH1 0x40 MSTORE DUP2 ADD SWAP1 PUSH3 0x37 SWAP2 SWAP1 PUSH3 0x15A JUMP JUMPDEST PUSH1 0x0 PUSH20 0xFFFFFFFFFFFFFFFFFFFFFFFFFFFFFFFFFFFFFFFF AND DUP2 PUSH20 0xFFFFFFFFFFFFFFFFFFFFFFFFFFFFFFFFFFFFFFFF AND SUB PUSH3 0xA9 JUMPI PUSH1 0x40 MLOAD PUSH32 0x8C379A000000000000000000000000000000000000000000000000000000000 DUP2 MSTORE PUSH1 0x4 ADD PUSH3 0xA0 SWAP1 PUSH3 0x1ED JUMP JUMPDEST PUSH1 0x40 MLOAD DUP1 SWAP2 SUB SWAP1 REVERT JUMPDEST DUP1 PUSH1 0x0 DUP1 PUSH2 0x100 EXP DUP2 SLOAD DUP2 PUSH20 0xFFFFFFFFFFFFFFFFFFFFFFFFFFFFFFFFFFFFFFFF MUL NOT AND SWAP1 DUP4 PUSH20 0xFFFFFFFFFFFFFFFFFFFFFFFFFFFFFFFFFFFFFFFF AND MUL OR SWAP1 SSTORE POP POP PUSH3 0x20F JUMP JUMPDEST PUSH1 0x0 DUP1 REVERT JUMPDEST PUSH1 0x0 PUSH20 0xFFFFFFFFFFFFFFFFFFFFFFFFFFFFFFFFFFFFFFFF DUP3 AND SWAP1 POP SWAP2 SWAP1 POP JUMP JUMPDEST PUSH1 0x0 PUSH3 0x122 DUP3 PUSH3 0xF5 JUMP JUMPDEST SWAP1 POP SWAP2 SWAP1 POP JUMP JUMPDEST PUSH3 0x134 DUP2 PUSH3 0x115 JUMP JUMPDEST DUP2 EQ PUSH3 0x140 JUMPI PUSH1 0x0 DUP1 REVERT JUMPDEST POP JUMP JUMPDEST PUSH1 0x0 DUP2 MLOAD SWAP1 POP PUSH3 0x154 DUP2 PUSH3 0x129 JUMP JUMPDEST SWAP3 SWAP2 POP POP JUMP JUMPDEST PUSH1 0x0 PUSH1 0x20 DUP3 DUP5 SUB SLT ISZERO PUSH3 0x173 JUMPI PUSH3 0x172 PUSH3 0xF0 JUMP JUMPDEST JUMPDEST PUSH1 0x0 PUSH3 0x183 DUP5 DUP3 DUP6 ADD PUSH3 0x143 JUMP JUMPDEST SWAP2 POP POP SWAP3 SWAP2 POP POP JUMP JUMPDEST PUSH1 0x0 DUP3 DUP3 MSTORE PUSH1 0x20 DUP3 ADD SWAP1 POP SWAP3 SWAP2 POP POP JUMP JUMPDEST PUSH32 0x61646D696E2073686F756C642062652070726F76696465640000000000000000 PUSH1 0x0 DUP3 ADD MSTORE POP JUMP JUMPDEST PUSH1 0x0 PUSH3 0x1D5 PUSH1 0x18 DUP4 PUSH3 0x18C JUMP JUMPDEST SWAP2 POP PUSH3 0x1E2 DUP3 PUSH3 0x19D JUMP JUMPDEST PUSH1 0x20 DUP3 ADD SWAP1 POP SWAP2 SWAP1 POP JUMP JUMPDEST PUSH1 0x0 PUSH1 0x20 DUP3 ADD SWAP1 POP DUP2 DUP2 SUB PUSH1 0x0 DUP4 ADD MSTORE PUSH3 0x208 DUP2 PUSH3 0x1C6 JUMP JUMPDEST SWAP1 POP SWAP2 SWAP1 POP JUMP JUMPDEST PUSH2 0x1C31 DUP1 PUSH3 0x21F PUSH1 0x0 CODECOPY PUSH1 0x0 RETURN INVALID PUSH1 0x80 PUSH1 0x40 MSTORE CALLVALUE DUP1 ISZERO PUSH2 0x10 JUMPI PUSH1 0x0 DUP1 REVERT JUMPDEST POP PUSH1 0x4 CALLDATASIZE LT PUSH2 0x62 JUMPI PUSH1 0x0 CALLDATALOAD PUSH1 0xE0 SHR DUP1 PUSH4 0x171CB379 EQ PUSH2 0x67 JUMPI DUP1 PUSH4 0x4A492795 EQ PUSH2 0x83 JUMPI DUP1 PUSH4 0x704B6C02 EQ PUSH2 0x9F JUMPI DUP1 PUSH4 0xB020C8F4 EQ PUSH2 0xBB JUMPI DUP1 PUSH4 0xC1C6A1A9 EQ PUSH2 0xEB JUMPI DUP1 PUSH4 0xF851A440 EQ PUSH2 0x11B JUMPI JUMPDEST PUSH1 0x0 DUP1 REVERT JUMPDEST PUSH2 0x81 PUSH1 0x4 DUP1 CALLDATASIZE SUB DUP2 ADD SWAP1 PUSH2 0x7C SWAP2 SWAP1 PUSH2 0x10BF JUMP JUMPDEST PUSH2 0x139 JUMP JUMPDEST STOP JUMPDEST PUSH2 0x9D PUSH1 0x4 DUP1 CALLDATASIZE SUB DUP2 ADD SWAP1 PUSH2 0x98 SWAP2 SWAP1 PUSH2 0x11F4 JUMP JUMPDEST PUSH2 0x371 JUMP JUMPDEST STOP JUMPDEST PUSH2 0xB9 PUSH1 0x4 DUP1 CALLDATASIZE SUB DUP2 ADD SWAP1 PUSH2 0xB4 SWAP2 SWAP1 PUSH2 0x12AF JUMP JUMPDEST PUSH2 0x680 JUMP JUMPDEST STOP JUMPDEST PUSH2 0xD5 PUSH1 0x4 DUP1 CALLDATASIZE SUB DUP2 ADD SWAP1 PUSH2 0xD0 SWAP2 SWAP1 PUSH2 0x12DC JUMP JUMPDEST PUSH2 0x7A8 JUMP JUMPDEST PUSH1 0x40 MLOAD PUSH2 0xE2 SWAP2 SWAP1 PUSH2 0x14DE JUMP JUMPDEST PUSH1 0x40 MLOAD DUP1 SWAP2 SUB SWAP1 RETURN JUMPDEST PUSH2 0x105 PUSH1 0x4 DUP1 CALLDATASIZE SUB DUP2 ADD SWAP1 PUSH2 0x100 SWAP2 SWAP1 PUSH2 0x12AF JUMP JUMPDEST PUSH2 0xA6F JUMP JUMPDEST PUSH1 0x40 MLOAD PUSH2 0x112 SWAP2 SWAP1 PUSH2 0x1580 JUMP JUMPDEST PUSH1 0x40 MLOAD DUP1 SWAP2 SUB SWAP1 RETURN JUMPDEST PUSH2 0x123 PUSH2 0xD1B JUMP JUMPDEST PUSH1 0x40 MLOAD PUSH2 0x130 SWAP2 SWAP1 PUSH2 0x15B1 JUMP JUMPDEST PUSH1 0x40 MLOAD DUP1 SWAP2 SUB SWAP1 RETURN JUMPDEST PUSH1 0x0 DUP1 SLOAD SWAP1 PUSH2 0x100 EXP SWAP1 DIV PUSH20 0xFFFFFFFFFFFFFFFFFFFFFFFFFFFFFFFFFFFFFFFF AND PUSH20 0xFFFFFFFFFFFFFFFFFFFFFFFFFFFFFFFFFFFFFFFF AND CALLER PUSH20 0xFFFFFFFFFFFFFFFFFFFFFFFFFFFFFFFFFFFFFFFF AND EQ PUSH2 0x1C7 JUMPI PUSH1 0x40 MLOAD PUSH32 0x8C379A000000000000000000000000000000000000000000000000000000000 DUP2 MSTORE PUSH1 0x4 ADD PUSH2 0x1BE SWAP1 PUSH2 0x1629 JUMP JUMPDEST PUSH1 0x40 MLOAD DUP1 SWAP2 SUB SWAP1 REVERT JUMPDEST PUSH1 0x0 DUP5 MLOAD SUB PUSH2 0x20B JUMPI PUSH1 0x40 MLOAD PUSH32 0x8C379A000000000000000000000000000000000000000000000000000000000 DUP2 MSTORE PUSH1 0x4 ADD PUSH2 0x202 SWAP1 PUSH2 0x1695 JUMP JUMPDEST PUSH1 0x40 MLOAD DUP1 SWAP2 SUB SWAP1 REVERT JUMPDEST PUSH1 0x0 DUP4 MLOAD SUB PUSH2 0x24F JUMPI PUSH1 0x40 MLOAD PUSH32 0x8C379A000000000000000000000000000000000000000000000000000000000 DUP2 MSTORE PUSH1 0x4 ADD PUSH2 0x246 SWAP1 PUSH2 0x1701 JUMP JUMPDEST PUSH1 0x40 MLOAD DUP1 SWAP2 SUB SWAP1 REVERT JUMPDEST PUSH1 0x0 DUP3 MLOAD SUB PUSH2 0x293 JUMPI PUSH1 0x40 MLOAD PUSH32 0x8C379A000000000000000000000000000000000000000000000000000000000 DUP2 MSTORE PUSH1 0x4 ADD PUSH2 0x28A SWAP1 PUSH2 0x176D JUMP JUMPDEST PUSH1 0x40 MLOAD DUP1 SWAP2 SUB SWAP1 REVERT JUMPDEST PUSH1 0x40 MLOAD DUP1 PUSH1 0x80 ADD PUSH1 0x40 MSTORE DUP1 DUP6 DUP2 MSTORE PUSH1 0x20 ADD DUP5 DUP2 MSTORE PUSH1 0x20 ADD DUP4 DUP2 MSTORE PUSH1 0x20 ADD DUP3 DUP2 MSTORE POP PUSH1 0x2 DUP6 PUSH1 0x40 MLOAD PUSH2 0x2C4 SWAP2 SWAP1 PUSH2 0x17C9 JUMP JUMPDEST SWAP1 DUP2 MSTORE PUSH1 0x20 ADD PUSH1 0x40 MLOAD DUP1 SWAP2 SUB SWAP1 KECCAK256 PUSH1 0x0 DUP3 ADD MLOAD DUP2 PUSH1 0x0 ADD SWAP1 DUP2 PUSH2 0x2E7 SWAP2 SWAP1 PUSH2 0x19F6 JUMP JUMPDEST POP PUSH1 0x20 DUP3 ADD MLOAD DUP2 PUSH1 0x1 ADD SWAP1 DUP1 MLOAD SWAP1 PUSH1 0x20 ADD SWAP1 PUSH2 0x304 SWAP3 SWAP2 SWAP1 PUSH2 0xD3F JUMP JUMPDEST POP PUSH1 0x40 DUP3 ADD MLOAD DUP2 PUSH1 0x2 ADD SWAP1 DUP2 PUSH2 0x31A SWAP2 SWAP1 PUSH2 0x19F6 JUMP JUMPDEST POP PUSH1 0x60 DUP3 ADD MLOAD DUP2 PUSH1 0x3 ADD SWAP1 DUP2 PUSH2 0x330 SWAP2 SWAP1 PUSH2 0x19F6 JUMP JUMPDEST POP SWAP1 POP POP PUSH32 0xE1E73CEA801405FFB0B85349C05BD8C9F98AED462670E1B231C289FC5DBD7F37 DUP5 PUSH1 0x40 MLOAD PUSH2 0x363 SWAP2 SWAP1 PUSH2 0x1B01 JUMP JUMPDEST PUSH1 0x40 MLOAD DUP1 SWAP2 SUB SWAP1 LOG1 POP POP POP POP JUMP JUMPDEST PUSH1 0x0 DUP1 SLOAD SWAP1 PUSH2 0x100 EXP SWAP1 DIV PUSH20 0xFFFFFFFFFFFFFFFFFFFFFFFFFFFFFFFFFFFFFFFF AND PUSH20 0xFFFFFFFFFFFFFFFFFFFFFFFFFFFFFFFFFFFFFFFF AND CALLER PUSH20 0xFFFFFFFFFFFFFFFFFFFFFFFFFFFFFFFFFFFFFFFF AND EQ PUSH2 0x3FF JUMPI PUSH1 0x40 MLOAD PUSH32 0x8C379A000000000000000000000000000000000000000000000000000000000 DUP2 MSTORE PUSH1 0x4 ADD PUSH2 0x3F6 SWAP1 PUSH2 0x1629 JUMP JUMPDEST PUSH1 0x40 MLOAD DUP1 SWAP2 SUB SWAP1 REVERT JUMPDEST PUSH1 0x0 PUSH20 0xFFFFFFFFFFFFFFFFFFFFFFFFFFFFFFFFFFFFFFFF AND DUP5 PUSH20 0xFFFFFFFFFFFFFFFFFFFFFFFFFFFFFFFFFFFFFFFF AND SUB PUSH2 0x46E JUMPI PUSH1 0x40 MLOAD PUSH32 0x8C379A000000000000000000000000000000000000000000000000000000000 DUP2 MSTORE PUSH1 0x4 ADD PUSH2 0x465 SWAP1 PUSH2 0x1B6F JUMP JUMPDEST PUSH1 0x40 MLOAD DUP1 SWAP2 SUB SWAP1 REVERT JUMPDEST PUSH1 0x0 DUP4 MLOAD SUB PUSH2 0x4B2 JUMPI PUSH1 0x40 MLOAD PUSH32 0x8C379A000000000000000000000000000000000000000000000000000000000 DUP2 MSTORE PUSH1 0x4 ADD PUSH2 0x4A9 SWAP1 PUSH2 0x1701 JUMP JUMPDEST PUSH1 0x40 MLOAD DUP1 SWAP2 SUB SWAP1 REVERT JUMPDEST PUSH1 0x0 DUP3 MLOAD SUB PUSH2 0x4F6 JUMPI PUSH1 0x40 MLOAD PUSH32 0x8C379A000000000000000000000000000000000000000000000000000000000 DUP2 MSTORE PUSH1 0x4 ADD PUSH2 0x4ED SWAP1 PUSH2 0x176D JUMP JUMPDEST PUSH1 0x40 MLOAD DUP1 SWAP2 SUB SWAP1 REVERT JUMPDEST PUSH1 0x0 DUP2 MLOAD SUB PUSH2 0x53A JUMPI PUSH1 0x40 MLOAD PUSH32 0x8C379A000000000000000000000000000000000000000000000000000000000 DUP2 MSTORE PUSH1 0x4 ADD PUSH2 0x531 SWAP1 PUSH2 0x1BDB JUMP JUMPDEST PUSH1 0x40 MLOAD DUP1 SWAP2 SUB SWAP1 REVERT JUMPDEST PUSH1 0x40 MLOAD DUP1 PUSH1 0x80 ADD PUSH1 0x40 MSTORE DUP1 DUP6 PUSH20 0xFFFFFFFFFFFFFFFFFFFFFFFFFFFFFFFFFFFFFFFF AND DUP2 MSTORE PUSH1 0x20 ADD DUP5 DUP2 MSTORE PUSH1 0x20 ADD DUP4 DUP2 MSTORE PUSH1 0x20 ADD DUP3 DUP2 MSTORE POP PUSH1 0x1 PUSH1 0x0 DUP7 PUSH20 0xFFFFFFFFFFFFFFFFFFFFFFFFFFFFFFFFFFFFFFFF AND PUSH20 0xFFFFFFFFFFFFFFFFFFFFFFFFFFFFFFFFFFFFFFFF AND DUP2 MSTORE PUSH1 0x20 ADD SWAP1 DUP2 MSTORE PUSH1 0x20 ADD PUSH1 0x0 KECCAK256 PUSH1 0x0 DUP3 ADD MLOAD DUP2 PUSH1 0x0 ADD PUSH1 0x0 PUSH2 0x100 EXP DUP2 SLOAD DUP2 PUSH20 0xFFFFFFFFFFFFFFFFFFFFFFFFFFFFFFFFFFFFFFFF MUL NOT AND SWAP1 DUP4 PUSH20 0xFFFFFFFFFFFFFFFFFFFFFFFFFFFFFFFFFFFFFFFF AND MUL OR SWAP1 SSTORE POP PUSH1 0x20 DUP3 ADD MLOAD DUP2 PUSH1 0x1 ADD SWAP1 DUP1 MLOAD SWAP1 PUSH1 0x20 ADD SWAP1 PUSH2 0x613 SWAP3 SWAP2 SWAP1 PUSH2 0xD3F JUMP JUMPDEST POP PUSH1 0x40 DUP3 ADD MLOAD DUP2 PUSH1 0x2 ADD SWAP1 DUP2 PUSH2 0x629 SWAP2 SWAP1 PUSH2 0x19F6 JUMP JUMPDEST POP PUSH1 0x60 DUP3 ADD MLOAD DUP2 PUSH1 0x3 ADD SWAP1 DUP2 PUSH2 0x63F SWAP2 SWAP1 PUSH2 0x19F6 JUMP JUMPDEST POP SWAP1 POP POP PUSH32 0xD9664F79FCD2597F70C71280DBF8FCCB5493B9206A42320187DB26B24C484569 DUP5 PUSH1 0x40 MLOAD PUSH2 0x672 SWAP2 SWAP1 PUSH2 0x15B1 JUMP JUMPDEST PUSH1 0x40 MLOAD DUP1 SWAP2 SUB SWAP1 LOG1 POP POP POP POP JUMP JUMPDEST PUSH1 0x0 DUP1 SLOAD SWAP1 PUSH2 0x100 EXP SWAP1 DIV PUSH20 0xFFFFFFFFFFFFFFFFFFFFFFFFFFFFFFFFFFFFFFFF AND PUSH20 0xFFFFFFFFFFFFFFFFFFFFFFFFFFFFFFFFFFFFFFFF AND CALLER PUSH20 0xFFFFFFFFFFFFFFFFFFFFFFFFFFFFFFFFFFFFFFFF AND EQ PUSH2 0x70E JUMPI PUSH1 0x40 MLOAD PUSH32 0x8C379A000000000000000000000000000000000000000000000000000000000 DUP2 MSTORE PUSH1 0x4 ADD PUSH2 0x705 SWAP1 PUSH2 0x1629 JUMP JUMPDEST PUSH1 0x40 MLOAD DUP1 SWAP2 SUB SWAP1 REVERT JUMPDEST DUP1 PUSH1 0x0 DUP1 PUSH2 0x100 EXP DUP2 SLOAD DUP2 PUSH20 0xFFFFFFFFFFFFFFFFFFFFFFFFFFFFFFFFFFFFFFFF MUL NOT AND SWAP1 DUP4 PUSH20 0xFFFFFFFFFFFFFFFFFFFFFFFFFFFFFFFFFFFFFFFF AND MUL OR SWAP1 SSTORE POP PUSH32 0x5A272403B402D892977DF56625F4164CCAF70CA3863991C43ECFE76A6905B0A1 PUSH1 0x0 DUP1 SLOAD SWAP1 PUSH2 0x100 EXP SWAP1 DIV PUSH20 0xFFFFFFFFFFFFFFFFFFFFFFFFFFFFFFFFFFFFFFFF AND PUSH1 0x40 MLOAD PUSH2 0x79D SWAP2 SWAP1 PUSH2 0x15B1 JUMP JUMPDEST PUSH1 0x40 MLOAD DUP1 SWAP2 SUB SWAP1 LOG1 POP JUMP JUMPDEST PUSH2 0x7B0 PUSH2 0xD98 JUMP JUMPDEST PUSH1 0x2 DUP3 PUSH1 0x40 MLOAD PUSH2 0x7C0 SWAP2 SWAP1 PUSH2 0x17C9 JUMP JUMPDEST SWAP1 DUP2 MSTORE PUSH1 0x20 ADD PUSH1 0x40 MLOAD DUP1 SWAP2 SUB SWAP1 KECCAK256 PUSH1 0x40 MLOAD DUP1 PUSH1 0x80 ADD PUSH1 0x40 MSTORE SWAP1 DUP2 PUSH1 0x0 DUP3 ADD DUP1 SLOAD PUSH2 0x7E9 SWAP1 PUSH2 0x180F JUMP JUMPDEST DUP1 PUSH1 0x1F ADD PUSH1 0x20 DUP1 SWAP2 DIV MUL PUSH1 0x20 ADD PUSH1 0x40 MLOAD SWAP1 DUP2 ADD PUSH1 0x40 MSTORE DUP1 SWAP3 SWAP2 SWAP1 DUP2 DUP2 MSTORE PUSH1 0x20 ADD DUP3 DUP1 SLOAD PUSH2 0x815 SWAP1 PUSH2 0x180F JUMP JUMPDEST DUP1 ISZERO PUSH2 0x862 JUMPI DUP1 PUSH1 0x1F LT PUSH2 0x837 JUMPI PUSH2 0x100 DUP1 DUP4 SLOAD DIV MUL DUP4 MSTORE SWAP2 PUSH1 0x20 ADD SWAP2 PUSH2 0x862 JUMP JUMPDEST DUP3 ADD SWAP2 SWAP1 PUSH1 0x0 MSTORE PUSH1 0x20 PUSH1 0x0 KECCAK256 SWAP1 JUMPDEST DUP2 SLOAD DUP2 MSTORE SWAP1 PUSH1 0x1 ADD SWAP1 PUSH1 0x20 ADD DUP1 DUP4 GT PUSH2 0x845 JUMPI DUP3 SWAP1 SUB PUSH1 0x1F AND DUP3 ADD SWAP2 JUMPDEST POP POP POP POP POP DUP2 MSTORE PUSH1 0x20 ADD PUSH1 0x1 DUP3 ADD DUP1 SLOAD DUP1 PUSH1 0x20 MUL PUSH1 0x20 ADD PUSH1 0x40 MLOAD SWAP1 DUP2 ADD PUSH1 0x40 MSTORE DUP1 SWAP3 SWAP2 SWAP1 DUP2 DUP2 MSTORE PUSH1 0x20 ADD PUSH1 0x0 SWAP1 JUMPDEST DUP3 DUP3 LT ISZERO PUSH2 0x93C JUMPI DUP4 DUP3 SWAP1 PUSH1 0x0 MSTORE PUSH1 0x20 PUSH1 0x0 KECCAK256 ADD DUP1 SLOAD PUSH2 0x8AF SWAP1 PUSH2 0x180F JUMP JUMPDEST DUP1 PUSH1 0x1F ADD PUSH1 0x20 DUP1 SWAP2 DIV MUL PUSH1 0x20 ADD PUSH1 0x40 MLOAD SWAP1 DUP2 ADD PUSH1 0x40 MSTORE DUP1 SWAP3 SWAP2 SWAP1 DUP2 DUP2 MSTORE PUSH1 0x20 ADD DUP3 DUP1 SLOAD PUSH2 0x8DB SWAP1 PUSH2 0x180F JUMP JUMPDEST DUP1 ISZERO PUSH2 0x928 JUMPI DUP1 PUSH1 0x1F LT PUSH2 0x8FD JUMPI PUSH2 0x100 DUP1 DUP4 SLOAD DIV MUL DUP4 MSTORE SWAP2 PUSH1 0x20 ADD SWAP2 PUSH2 0x928 JUMP JUMPDEST DUP3 ADD SWAP2 SWAP1 PUSH1 0x0 MSTORE PUSH1 0x20 PUSH1 0x0 KECCAK256 SWAP1 JUMPDEST DUP2 SLOAD DUP2 MSTORE SWAP1 PUSH1 0x1 ADD SWAP1 PUSH1 0x20 ADD DUP1 DUP4 GT PUSH2 0x90B JUMPI DUP3 SWAP1 SUB PUSH1 0x1F AND DUP3 ADD SWAP2 JUMPDEST POP POP POP POP POP DUP2 MSTORE PUSH1 0x20 ADD SWAP1 PUSH1 0x1 ADD SWAP1 PUSH2 0x890 JUMP JUMPDEST POP POP POP POP DUP2 MSTORE PUSH1 0x20 ADD PUSH1 0x2 DUP3 ADD DUP1 SLOAD PUSH2 0x954 SWAP1 PUSH2 0x180F JUMP JUMPDEST DUP1 PUSH1 0x1F ADD PUSH1 0x20 DUP1 SWAP2 DIV MUL PUSH1 0x20 ADD PUSH1 0x40 MLOAD SWAP1 DUP2 ADD PUSH1 0x40 MSTORE DUP1 SWAP3 SWAP2 SWAP1 DUP2 DUP2 MSTORE PUSH1 0x20 ADD DUP3 DUP1 SLOAD PUSH2 0x980 SWAP1 PUSH2 0x180F JUMP JUMPDEST DUP1 ISZERO PUSH2 0x9CD JUMPI DUP1 PUSH1 0x1F LT PUSH2 0x9A2 JUMPI PUSH2 0x100 DUP1 DUP4 SLOAD DIV MUL DUP4 MSTORE SWAP2 PUSH1 0x20 ADD SWAP2 PUSH2 0x9CD JUMP JUMPDEST DUP3 ADD SWAP2 SWAP1 PUSH1 0x0 MSTORE PUSH1 0x20 PUSH1 0x0 KECCAK256 SWAP1 JUMPDEST DUP2 SLOAD DUP2 MSTORE SWAP1 PUSH1 0x1 ADD SWAP1 PUSH1 0x20 ADD DUP1 DUP4 GT PUSH2 0x9B0 JUMPI DUP3 SWAP1 SUB PUSH1 0x1F AND DUP3 ADD SWAP2 JUMPDEST POP POP POP POP POP DUP2 MSTORE PUSH1 0x20 ADD PUSH1 0x3 DUP3 ADD DUP1 SLOAD PUSH2 0x9E6 SWAP1 PUSH2 0x180F JUMP JUMPDEST DUP1 PUSH1 0x1F ADD PUSH1 0x20 DUP1 SWAP2 DIV MUL PUSH1 0x20 ADD PUSH1 0x40 MLOAD SWAP1 DUP2 ADD PUSH1 0x40 MSTORE DUP1 SWAP3 SWAP2 SWAP1 DUP2 DUP2 MSTORE PUSH1 0x20 ADD DUP3 DUP1 SLOAD PUSH2 0xA12 SWAP1 PUSH2 0x180F JUMP JUMPDEST DUP1 ISZERO PUSH2 0xA5F JUMPI DUP1 PUSH1 0x1F LT PUSH2 0xA34 JUMPI PUSH2 0x100 DUP1 DUP4 SLOAD DIV MUL DUP4 MSTORE SWAP2 PUSH1 0x20 ADD SWAP2 PUSH2 0xA5F JUMP JUMPDEST DUP3 ADD SWAP2 SWAP1 PUSH1 0x0 MSTORE PUSH1 0x20 PUSH1 0x0 KECCAK256 SWAP1 JUMPDEST DUP2 SLOAD DUP2 MSTORE SWAP1 PUSH1 0x1 ADD SWAP1 PUSH1 0x20 ADD DUP1 DUP4 GT PUSH2 0xA42 JUMPI DUP3 SWAP1 SUB PUSH1 0x1F AND DUP3 ADD SWAP2 JUMPDEST POP POP POP POP POP DUP2 MSTORE POP POP SWAP1 POP SWAP2 SWAP1 POP JUMP JUMPDEST PUSH2 0xA77 PUSH2 0xDC0 JUMP JUMPDEST PUSH1 0x1 PUSH1 0x0 DUP4 PUSH20 0xFFFFFFFFFFFFFFFFFFFFFFFFFFFFFFFFFFFFFFFF AND PUSH20 0xFFFFFFFFFFFFFFFFFFFFFFFFFFFFFFFFFFFFFFFF AND DUP2 MSTORE PUSH1 0x20 ADD SWAP1 DUP2 MSTORE PUSH1 0x20 ADD PUSH1 0x0 KECCAK256 PUSH1 0x40 MLOAD DUP1 PUSH1 0x80 ADD PUSH1 0x40 MSTORE SWAP1 DUP2 PUSH1 0x0 DUP3 ADD PUSH1 0x0 SWAP1 SLOAD SWAP1 PUSH2 0x100 EXP SWAP1 DIV PUSH20 0xFFFFFFFFFFFFFFFFFFFFFFFFFFFFFFFFFFFFFFFF AND PUSH20 0xFFFFFFFFFFFFFFFFFFFFFFFFFFFFFFFFFFFFFFFF AND PUSH20 0xFFFFFFFFFFFFFFFFFFFFFFFFFFFFFFFFFFFFFFFF AND DUP2 MSTORE PUSH1 0x20 ADD PUSH1 0x1 DUP3 ADD DUP1 SLOAD DUP1 PUSH1 0x20 MUL PUSH1 0x20 ADD PUSH1 0x40 MLOAD SWAP1 DUP2 ADD PUSH1 0x40 MSTORE DUP1 SWAP3 SWAP2 SWAP1 DUP2 DUP2 MSTORE PUSH1 0x20 ADD PUSH1 0x0 SWAP1 JUMPDEST DUP3 DUP3 LT ISZERO PUSH2 0xBE8 JUMPI DUP4 DUP3 SWAP1 PUSH1 0x0 MSTORE PUSH1 0x20 PUSH1 0x0 KECCAK256 ADD DUP1 SLOAD PUSH2 0xB5B SWAP1 PUSH2 0x180F JUMP JUMPDEST DUP1 PUSH1 0x1F ADD PUSH1 0x20 DUP1 SWAP2 DIV MUL PUSH1 0x20 ADD PUSH1 0x40 MLOAD SWAP1 DUP2 ADD PUSH1 0x40 MSTORE DUP1 SWAP3 SWAP2 SWAP1 DUP2 DUP2 MSTORE PUSH1 0x20 ADD DUP3 DUP1 SLOAD PUSH2 0xB87 SWAP1 PUSH2 0x180F JUMP JUMPDEST DUP1 ISZERO PUSH2 0xBD4 JUMPI DUP1 PUSH1 0x1F LT PUSH2 0xBA9 JUMPI PUSH2 0x100 DUP1 DUP4 SLOAD DIV MUL DUP4 MSTORE SWAP2 PUSH1 0x20 ADD SWAP2 PUSH2 0xBD4 JUMP JUMPDEST DUP3 ADD SWAP2 SWAP1 PUSH1 0x0 MSTORE PUSH1 0x20 PUSH1 0x0 KECCAK256 SWAP1 JUMPDEST DUP2 SLOAD DUP2 MSTORE SWAP1 PUSH1 0x1 ADD SWAP1 PUSH1 0x20 ADD DUP1 DUP4 GT PUSH2 0xBB7 JUMPI DUP3 SWAP1 SUB PUSH1 0x1F AND DUP3 ADD SWAP2 JUMPDEST POP POP POP POP POP DUP2 MSTORE PUSH1 0x20 ADD SWAP1 PUSH1 0x1 ADD SWAP1 PUSH2 0xB3C JUMP JUMPDEST POP POP POP POP DUP2 MSTORE PUSH1 0x20 ADD PUSH1 0x2 DUP3 ADD DUP1 SLOAD PUSH2 0xC00 SWAP1 PUSH2 0x180F JUMP JUMPDEST DUP1 PUSH1 0x1F ADD PUSH1 0x20 DUP1 SWAP2 DIV MUL PUSH1 0x20 ADD PUSH1 0x40 MLOAD SWAP1 DUP2 ADD PUSH1 0x40 MSTORE DUP1 SWAP3 SWAP2 SWAP1 DUP2 DUP2 MSTORE PUSH1 0x20 ADD DUP3 DUP1 SLOAD PUSH2 0xC2C SWAP1 PUSH2 0x180F JUMP JUMPDEST DUP1 ISZERO PUSH2 0xC79 JUMPI DUP1 PUSH1 0x1F LT PUSH2 0xC4E JUMPI PUSH2 0x100 DUP1 DUP4 SLOAD DIV MUL DUP4 MSTORE SWAP2 PUSH1 0x20 ADD SWAP2 PUSH2 0xC79 JUMP JUMPDEST DUP3 ADD SWAP2 SWAP1 PUSH1 0x0 MSTORE PUSH1 0x20 PUSH1 0x0 KECCAK256 SWAP1 JUMPDEST DUP2 SLOAD DUP2 MSTORE SWAP1 PUSH1 0x1 ADD SWAP1 PUSH1 0x20 ADD DUP1 DUP4 GT PUSH2 0xC5C JUMPI DUP3 SWAP1 SUB PUSH1 0x1F AND DUP3 ADD SWAP2 JUMPDEST POP POP POP POP POP DUP2 MSTORE PUSH1 0x20 ADD PUSH1 0x3 DUP3 ADD DUP1 SLOAD PUSH2 0xC92 SWAP1 PUSH2 0x180F JUMP JUMPDEST DUP1 PUSH1 0x1F ADD PUSH1 0x20 DUP1 SWAP2 DIV MUL PUSH1 0x20 ADD PUSH1 0x40 MLOAD SWAP1 DUP2 ADD PUSH1 0x40 MSTORE DUP1 SWAP3 SWAP2 SWAP1 DUP2 DUP2 MSTORE PUSH1 0x20 ADD DUP3 DUP1 SLOAD PUSH2 0xCBE SWAP1 PUSH2 0x180F JUMP JUMPDEST DUP1 ISZERO PUSH2 0xD0B JUMPI DUP1 PUSH1 0x1F LT PUSH2 0xCE0 JUMPI PUSH2 0x100 DUP1 DUP4 SLOAD DIV MUL DUP4 MSTORE SWAP2 PUSH1 0x20 ADD SWAP2 PUSH2 0xD0B JUMP JUMPDEST DUP3 ADD SWAP2 SWAP1 PUSH1 0x0 MSTORE PUSH1 0x20 PUSH1 0x0 KECCAK256 SWAP1 JUMPDEST DUP2 SLOAD DUP2 MSTORE SWAP1 PUSH1 0x1 ADD SWAP1 PUSH1 0x20 ADD DUP1 DUP4 GT PUSH2 0xCEE JUMPI DUP3 SWAP1 SUB PUSH1 0x1F AND DUP3 ADD SWAP2 JUMPDEST POP POP POP POP POP DUP2 MSTORE POP POP SWAP1 POP SWAP2 SWAP1 POP JUMP JUMPDEST PUSH1 0x0 DUP1 SLOAD SWAP1 PUSH2 0x100 EXP SWAP1 DIV PUSH20 0xFFFFFFFFFFFFFFFFFFFFFFFFFFFFFFFFFFFFFFFF AND DUP2 JUMP JUMPDEST DUP3 DUP1 SLOAD DUP3 DUP3 SSTORE SWAP1 PUSH1 0x0 MSTORE PUSH1 0x20 PUSH1 0x0 KECCAK256 SWAP1 DUP2 ADD SWAP3 DUP3 ISZERO PUSH2 0xD87 JUMPI SWAP2 PUSH1 0x20 MUL DUP3 ADD JUMPDEST DUP3 DUP2 GT ISZERO PUSH2 0xD86 JUMPI DUP3 MLOAD DUP3 SWAP1 DUP2 PUSH2 0xD76 SWAP2 SWAP1 PUSH2 0x19F6 JUMP JUMPDEST POP SWAP2 PUSH1 0x20 ADD SWAP2 SWAP1 PUSH1 0x1 ADD SWAP1 PUSH2 0xD5F JUMP JUMPDEST JUMPDEST POP SWAP1 POP PUSH2 0xD94 SWAP2 SWAP1 PUSH2 0xDFE JUMP JUMPDEST POP SWAP1 JUMP JUMPDEST PUSH1 0x40 MLOAD DUP1 PUSH1 0x80 ADD PUSH1 0x40 MSTORE DUP1 PUSH1 0x60 DUP2 MSTORE PUSH1 0x20 ADD PUSH1 0x60 DUP2 MSTORE PUSH1 0x20 ADD PUSH1 0x60 DUP2 MSTORE PUSH1 0x20 ADD PUSH1 0x60 DUP2 MSTORE POP SWAP1 JUMP JUMPDEST PUSH1 0x40 MLOAD DUP1 PUSH1 0x80 ADD PUSH1 0x40 MSTORE DUP1 PUSH1 0x0 PUSH20 0xFFFFFFFFFFFFFFFFFFFFFFFFFFFFFFFFFFFFFFFF AND DUP2 MSTORE PUSH1 0x20 ADD PUSH1 0x60 DUP2 MSTORE PUSH1 0x20 ADD PUSH1 0x60 DUP2 MSTORE PUSH1 0x20 ADD PUSH1 0x60 DUP2 MSTORE POP SWAP1 JUMP JUMPDEST JUMPDEST DUP1 DUP3 GT ISZERO PUSH2 0xE1E JUMPI PUSH1 0x0 DUP2 DUP2 PUSH2 0xE15 SWAP2 SWAP1 PUSH2 0xE22 JUMP JUMPDEST POP PUSH1 0x1 ADD PUSH2 0xDFF JUMP JUMPDEST POP SWAP1 JUMP JUMPDEST POP DUP1 SLOAD PUSH2 0xE2E SWAP1 PUSH2 0x180F JUMP JUMPDEST PUSH1 0x0 DUP3 SSTORE DUP1 PUSH1 0x1F LT PUSH2 0xE40 JUMPI POP PUSH2 0xE5F JUMP JUMPDEST PUSH1 0x1F ADD PUSH1 0x20 SWAP1 DIV SWAP1 PUSH1 0x0 MSTORE PUSH1 0x20 PUSH1 0x0 KECCAK256 SWAP1 DUP2 ADD SWAP1 PUSH2 0xE5E SWAP2 SWAP1 PUSH2 0xE62 JUMP JUMPDEST JUMPDEST POP JUMP JUMPDEST JUMPDEST DUP1 DUP3 GT ISZERO PUSH2 0xE7B JUMPI PUSH1 0x0 DUP2 PUSH1 0x0 SWAP1 SSTORE POP PUSH1 0x1 ADD PUSH2 0xE63 JUMP JUMPDEST POP SWAP1 JUMP JUMPDEST PUSH1 0x0 PUSH1 0x40 MLOAD SWAP1 POP SWAP1 JUMP JUMPDEST PUSH1 0x0 DUP1 REVERT JUMPDEST PUSH1 0x0 DUP1 REVERT JUMPDEST PUSH1 0x0 DUP1 REVERT JUMPDEST PUSH1 0x0 DUP1 REVERT JUMPDEST PUSH1 0x0 PUSH1 0x1F NOT PUSH1 0x1F DUP4 ADD AND SWAP1 POP SWAP2 SWAP1 POP JUMP JUMPDEST PUSH32 0x4E487B7100000000000000000000000000000000000000000000000000000000 PUSH1 0x0 MSTORE PUSH1 0x41 PUSH1 0x4 MSTORE PUSH1 0x24 PUSH1 0x0 REVERT JUMPDEST PUSH2 0xEE6 DUP3 PUSH2 0xE9D JUMP JUMPDEST DUP2 ADD DUP2 DUP2 LT PUSH8 0xFFFFFFFFFFFFFFFF DUP3 GT OR ISZERO PUSH2 0xF05 JUMPI PUSH2 0xF04 PUSH2 0xEAE JUMP JUMPDEST JUMPDEST DUP1 PUSH1 0x40 MSTORE POP POP POP JUMP JUMPDEST PUSH1 0x0 PUSH2 0xF18 PUSH2 0xE7F JUMP JUMPDEST SWAP1 POP PUSH2 0xF24 DUP3 DUP3 PUSH2 0xEDD JUMP JUMPDEST SWAP2 SWAP1 POP JUMP JUMPDEST PUSH1 0x0 PUSH8 0xFFFFFFFFFFFFFFFF DUP3 GT ISZERO PUSH2 0xF44 JUMPI PUSH2 0xF43 PUSH2 0xEAE JUMP JUMPDEST JUMPDEST PUSH2 0xF4D DUP3 PUSH2 0xE9D JUMP JUMPDEST SWAP1 POP PUSH1 0x20 DUP2 ADD SWAP1 POP SWAP2 SWAP1 POP JUMP JUMPDEST DUP3 DUP2 DUP4 CALLDATACOPY PUSH1 0x0 DUP4 DUP4 ADD MSTORE POP POP POP JUMP JUMPDEST PUSH1 0x0 PUSH2 0xF7C PUSH2 0xF77 DUP5 PUSH2 0xF29 JUMP JUMPDEST PUSH2 0xF0E JUMP JUMPDEST SWAP1 POP DUP3 DUP2 MSTORE PUSH1 0x20 DUP2 ADD DUP5 DUP5 DUP5 ADD GT ISZERO PUSH2 0xF98 JUMPI PUSH2 0xF97 PUSH2 0xE98 JUMP JUMPDEST JUMPDEST PUSH2 0xFA3 DUP5 DUP3 DUP6 PUSH2 0xF5A JUMP JUMPDEST POP SWAP4 SWAP3 POP POP POP JUMP JUMPDEST PUSH1 0x0 DUP3 PUSH1 0x1F DUP4 ADD SLT PUSH2 0xFC0 JUMPI PUSH2 0xFBF PUSH2 0xE93 JUMP JUMPDEST JUMPDEST DUP2 CALLDATALOAD PUSH2 0xFD0 DUP5 DUP3 PUSH1 0x20 DUP7 ADD PUSH2 0xF69 JUMP JUMPDEST SWAP2 POP POP SWAP3 SWAP2 POP POP JUMP JUMPDEST PUSH1 0x0 PUSH8 0xFFFFFFFFFFFFFFFF DUP3 GT ISZERO PUSH2 0xFF4 JUMPI PUSH2 0xFF3 PUSH2 0xEAE JUMP JUMPDEST JUMPDEST PUSH1 0x20 DUP3 MUL SWAP1 POP PUSH1 0x20 DUP2 ADD SWAP1 POP SWAP2 SWAP1 POP JUMP JUMPDEST PUSH1 0x0 DUP1 REVERT JUMPDEST PUSH1 0x0 PUSH2 0x101D PUSH2 0x1018 DUP5 PUSH2 0xFD9 JUMP JUMPDEST PUSH2 0xF0E JUMP JUMPDEST SWAP1 POP DUP1 DUP4 DUP3 MSTORE PUSH1 0x20 DUP3 ADD SWAP1 POP PUSH1 0x20 DUP5 MUL DUP4 ADD DUP6 DUP2 GT ISZERO PUSH2 0x1040 JUMPI PUSH2 0x103F PUSH2 0x1005 JUMP JUMPDEST JUMPDEST DUP4 JUMPDEST DUP2 DUP2 LT ISZERO PUSH2 0x1087 JUMPI DUP1 CALLDATALOAD PUSH8 0xFFFFFFFFFFFFFFFF DUP2 GT ISZERO PUSH2 0x1065 JUMPI PUSH2 0x1064 PUSH2 0xE93 JUMP JUMPDEST JUMPDEST DUP1 DUP7 ADD PUSH2 0x1072 DUP10 DUP3 PUSH2 0xFAB JUMP JUMPDEST DUP6 MSTORE PUSH1 0x20 DUP6 ADD SWAP5 POP POP POP PUSH1 0x20 DUP2 ADD SWAP1 POP PUSH2 0x1042 JUMP JUMPDEST POP POP POP SWAP4 SWAP3 POP POP POP JUMP JUMPDEST PUSH1 0x0 DUP3 PUSH1 0x1F DUP4 ADD SLT PUSH2 0x10A6 JUMPI PUSH2 0x10A5 PUSH2 0xE93 JUMP JUMPDEST JUMPDEST DUP2 CALLDATALOAD PUSH2 0x10B6 DUP5 DUP3 PUSH1 0x20 DUP7 ADD PUSH2 0x100A JUMP JUMPDEST SWAP2 POP POP SWAP3 SWAP2 POP POP JUMP JUMPDEST PUSH1 0x0 DUP1 PUSH1 0x0 DUP1 PUSH1 0x80 DUP6 DUP8 SUB SLT ISZERO PUSH2 0x10D9 JUMPI PUSH2 0x10D8 PUSH2 0xE89 JUMP JUMPDEST JUMPDEST PUSH1 0x0 DUP6 ADD CALLDATALOAD PUSH8 0xFFFFFFFFFFFFFFFF DUP2 GT ISZERO PUSH2 0x10F7 JUMPI PUSH2 0x10F6 PUSH2 0xE8E JUMP JUMPDEST JUMPDEST PUSH2 0x1103 DUP8 DUP3 DUP9 ADD PUSH2 0xFAB JUMP JUMPDEST SWAP5 POP POP PUSH1 0x20 DUP6 ADD CALLDATALOAD PUSH8 0xFFFFFFFFFFFFFFFF DUP2 GT ISZERO PUSH2 0x1124 JUMPI PUSH2 0x1123 PUSH2 0xE8E JUMP JUMPDEST JUMPDEST PUSH2 0x1130 DUP8 DUP3 DUP9 ADD PUSH2 0x1091 JUMP JUMPDEST SWAP4 POP POP PUSH1 0x40 DUP6 ADD CALLDATALOAD PUSH8 0xFFFFFFFFFFFFFFFF DUP2 GT ISZERO PUSH2 0x1151 JUMPI PUSH2 0x1150 PUSH2 0xE8E JUMP JUMPDEST JUMPDEST PUSH2 0x115D DUP8 DUP3 DUP9 ADD PUSH2 0xFAB JUMP JUMPDEST SWAP3 POP POP PUSH1 0x60 DUP6 ADD CALLDATALOAD PUSH8 0xFFFFFFFFFFFFFFFF DUP2 GT ISZERO PUSH2 0x117E JUMPI PUSH2 0x117D PUSH2 0xE8E JUMP JUMPDEST JUMPDEST PUSH2 0x118A DUP8 DUP3 DUP9 ADD PUSH2 0xFAB JUMP JUMPDEST SWAP2 POP POP SWAP3 SWAP6 SWAP2 SWAP5 POP SWAP3 POP JUMP JUMPDEST PUSH1 0x0 PUSH20 0xFFFFFFFFFFFFFFFFFFFFFFFFFFFFFFFFFFFFFFFF DUP3 AND SWAP1 POP SWAP2 SWAP1 POP JUMP JUMPDEST PUSH1 0x0 PUSH2 0x11C1 DUP3 PUSH2 0x1196 JUMP JUMPDEST SWAP1 POP SWAP2 SWAP1 POP JUMP JUMPDEST PUSH2 0x11D1 DUP2 PUSH2 0x11B6 JUMP JUMPDEST DUP2 EQ PUSH2 0x11DC JUMPI PUSH1 0x0 DUP1 REVERT JUMPDEST POP JUMP JUMPDEST PUSH1 0x0 DUP2 CALLDATALOAD SWAP1 POP PUSH2 0x11EE DUP2 PUSH2 0x11C8 JUMP JUMPDEST SWAP3 SWAP2 POP POP JUMP JUMPDEST PUSH1 0x0 DUP1 PUSH1 0x0 DUP1 PUSH1 0x80 DUP6 DUP8 SUB SLT ISZERO PUSH2 0x120E JUMPI PUSH2 0x120D PUSH2 0xE89 JUMP JUMPDEST JUMPDEST PUSH1 0x0 PUSH2 0x121C DUP8 DUP3 DUP9 ADD PUSH2 0x11DF JUMP JUMPDEST SWAP5 POP POP PUSH1 0x20 DUP6 ADD CALLDATALOAD PUSH8 0xFFFFFFFFFFFFFFFF DUP2 GT ISZERO PUSH2 0x123D JUMPI PUSH2 0x123C PUSH2 0xE8E JUMP JUMPDEST JUMPDEST PUSH2 0x1249 DUP8 DUP3 DUP9 ADD PUSH2 0x1091 JUMP JUMPDEST SWAP4 POP POP PUSH1 0x40 DUP6 ADD CALLDATALOAD PUSH8 0xFFFFFFFFFFFFFFFF DUP2 GT ISZERO PUSH2 0x126A JUMPI PUSH2 0x1269 PUSH2 0xE8E JUMP JUMPDEST JUMPDEST PUSH2 0x1276 DUP8 DUP3 DUP9 ADD PUSH2 0xFAB JUMP JUMPDEST SWAP3 POP POP PUSH1 0x60 DUP6 ADD CALLDATALOAD PUSH8 0xFFFFFFFFFFFFFFFF DUP2 GT ISZERO PUSH2 0x1297 JUMPI PUSH2 0x1296 PUSH2 0xE8E JUMP JUMPDEST JUMPDEST PUSH2 0x12A3 DUP8 DUP3 DUP9 ADD PUSH2 0xFAB JUMP JUMPDEST SWAP2 POP POP SWAP3 SWAP6 SWAP2 SWAP5 POP SWAP3 POP JUMP JUMPDEST PUSH1 0x0 PUSH1 0x20 DUP3 DUP5 SUB SLT ISZERO PUSH2 0x12C5 JUMPI PUSH2 0x12C4 PUSH2 0xE89 JUMP JUMPDEST JUMPDEST PUSH1 0x0 PUSH2 0x12D3 DUP5 DUP3 DUP6 ADD PUSH2 0x11DF JUMP JUMPDEST SWAP2 POP POP SWAP3 SWAP2 POP POP JUMP JUMPDEST PUSH1 0x0 PUSH1 0x20 DUP3 DUP5 SUB SLT ISZERO PUSH2 0x12F2 JUMPI PUSH2 0x12F1 PUSH2 0xE89 JUMP JUMPDEST JUMPDEST PUSH1 0x0 DUP3 ADD CALLDATALOAD PUSH8 0xFFFFFFFFFFFFFFFF DUP2 GT ISZERO PUSH2 0x1310 JUMPI PUSH2 0x130F PUSH2 0xE8E JUMP JUMPDEST JUMPDEST PUSH2 0x131C DUP5 DUP3 DUP6 ADD PUSH2 0xFAB JUMP JUMPDEST SWAP2 POP POP SWAP3 SWAP2 POP POP JUMP JUMPDEST PUSH1 0x0 DUP2 MLOAD SWAP1 POP SWAP2 SWAP1 POP JUMP JUMPDEST PUSH1 0x0 DUP3 DUP3 MSTORE PUSH1 0x20 DUP3 ADD SWAP1 POP SWAP3 SWAP2 POP POP JUMP JUMPDEST PUSH1 0x0 JUMPDEST DUP4 DUP2 LT ISZERO PUSH2 0x135F JUMPI DUP1 DUP3 ADD MLOAD DUP2 DUP5 ADD MSTORE PUSH1 0x20 DUP2 ADD SWAP1 POP PUSH2 0x1344 JUMP JUMPDEST PUSH1 0x0 DUP5 DUP5 ADD MSTORE POP POP POP POP JUMP JUMPDEST PUSH1 0x0 PUSH2 0x1376 DUP3 PUSH2 0x1325 JUMP JUMPDEST PUSH2 0x1380 DUP2 DUP6 PUSH2 0x1330 JUMP JUMPDEST SWAP4 POP PUSH2 0x1390 DUP2 DUP6 PUSH1 0x20 DUP7 ADD PUSH2 0x1341 JUMP JUMPDEST PUSH2 0x1399 DUP2 PUSH2 0xE9D JUMP JUMPDEST DUP5 ADD SWAP2 POP POP SWAP3 SWAP2 POP POP JUMP JUMPDEST PUSH1 0x0 DUP2 MLOAD SWAP1 POP SWAP2 SWAP1 POP JUMP JUMPDEST PUSH1 0x0 DUP3 DUP3 MSTORE PUSH1 0x20 DUP3 ADD SWAP1 POP SWAP3 SWAP2 POP POP JUMP JUMPDEST PUSH1 0x0 DUP2 SWAP1 POP PUSH1 0x20 DUP3 ADD SWAP1 POP SWAP2 SWAP1 POP JUMP JUMPDEST PUSH1 0x0 PUSH2 0x13DC DUP4 DUP4 PUSH2 0x136B JUMP JUMPDEST SWAP1 POP SWAP3 SWAP2 POP POP JUMP JUMPDEST PUSH1 0x0 PUSH1 0x20 DUP3 ADD SWAP1 POP SWAP2 SWAP1 POP JUMP JUMPDEST PUSH1 0x0 PUSH2 0x13FC DUP3 PUSH2 0x13A4 JUMP JUMPDEST PUSH2 0x1406 DUP2 DUP6 PUSH2 0x13AF JUMP JUMPDEST SWAP4 POP DUP4 PUSH1 0x20 DUP3 MUL DUP6 ADD PUSH2 0x1418 DUP6 PUSH2 0x13C0 JUMP JUMPDEST DUP1 PUSH1 0x0 JUMPDEST DUP6 DUP2 LT ISZERO PUSH2 0x1454 JUMPI DUP5 DUP5 SUB DUP10 MSTORE DUP2 MLOAD PUSH2 0x1435 DUP6 DUP3 PUSH2 0x13D0 JUMP JUMPDEST SWAP5 POP PUSH2 0x1440 DUP4 PUSH2 0x13E4 JUMP JUMPDEST SWAP3 POP PUSH1 0x20 DUP11 ADD SWAP10 POP POP PUSH1 0x1 DUP2 ADD SWAP1 POP PUSH2 0x141C JUMP JUMPDEST POP DUP3 SWAP8 POP DUP8 SWAP6 POP POP POP POP POP POP SWAP3 SWAP2 POP POP JUMP JUMPDEST PUSH1 0x0 PUSH1 0x80 DUP4 ADD PUSH1 0x0 DUP4 ADD MLOAD DUP5 DUP3 SUB PUSH1 0x0 DUP7 ADD MSTORE PUSH2 0x1483 DUP3 DUP3 PUSH2 0x136B JUMP JUMPDEST SWAP2 POP POP PUSH1 0x20 DUP4 ADD MLOAD DUP5 DUP3 SUB PUSH1 0x20 DUP7 ADD MSTORE PUSH2 0x149D DUP3 DUP3 PUSH2 0x13F1 JUMP JUMPDEST SWAP2 POP POP PUSH1 0x40 DUP4 ADD MLOAD DUP5 DUP3 SUB PUSH1 0x40 DUP7 ADD MSTORE PUSH2 0x14B7 DUP3 DUP3 PUSH2 0x136B JUMP JUMPDEST SWAP2 POP POP PUSH1 0x60 DUP4 ADD MLOAD DUP5 DUP3 SUB PUSH1 0x60 DUP7 ADD MSTORE PUSH2 0x14D1 DUP3 DUP3 PUSH2 0x136B JUMP JUMPDEST SWAP2 POP POP DUP1 SWAP2 POP POP SWAP3 SWAP2 POP POP JUMP JUMPDEST PUSH1 0x0 PUSH1 0x20 DUP3 ADD SWAP1 POP DUP2 DUP2 SUB PUSH1 0x0 DUP4 ADD MSTORE PUSH2 0x14F8 DUP2 DUP5 PUSH2 0x1466 JUMP JUMPDEST SWAP1 POP SWAP3 SWAP2 POP POP JUMP JUMPDEST PUSH2 0x1509 DUP2 PUSH2 0x11B6 JUMP JUMPDEST DUP3 MSTORE POP POP JUMP JUMPDEST PUSH1 0x0 PUSH1 0x80 DUP4 ADD PUSH1 0x0 DUP4 ADD MLOAD PUSH2 0x1527 PUSH1 0x0 DUP7 ADD DUP3 PUSH2 0x1500 JUMP JUMPDEST POP PUSH1 0x20 DUP4 ADD MLOAD DUP5 DUP3 SUB PUSH1 0x20 DUP7 ADD MSTORE PUSH2 0x153F DUP3 DUP3 PUSH2 0x13F1 JUMP JUMPDEST SWAP2 POP POP PUSH1 0x40 DUP4 ADD MLOAD DUP5 DUP3 SUB PUSH1 0x40 DUP7 ADD MSTORE PUSH2 0x1559 DUP3 DUP3 PUSH2 0x136B JUMP JUMPDEST SWAP2 POP POP PUSH1 0x60 DUP4 ADD MLOAD DUP5 DUP3 SUB PUSH1 0x60 DUP7 ADD MSTORE PUSH2 0x1573 DUP3 DUP3 PUSH2 0x136B JUMP JUMPDEST SWAP2 POP POP DUP1 SWAP2 POP POP SWAP3 SWAP2 POP POP JUMP JUMPDEST PUSH1 0x0 PUSH1 0x20 DUP3 ADD SWAP1 POP DUP2 DUP2 SUB PUSH1 0x0 DUP4 ADD MSTORE PUSH2 0x159A DUP2 DUP5 PUSH2 0x150F JUMP JUMPDEST SWAP1 POP SWAP3 SWAP2 POP POP JUMP JUMPDEST PUSH2 0x15AB DUP2 PUSH2 0x11B6 JUMP JUMPDEST DUP3 MSTORE POP POP JUMP JUMPDEST PUSH1 0x0 PUSH1 0x20 DUP3 ADD SWAP1 POP PUSH2 0x15C6 PUSH1 0x0 DUP4 ADD DUP5 PUSH2 0x15A2 JUMP JUMPDEST SWAP3 SWAP2 POP POP JUMP JUMPDEST PUSH1 0x0 DUP3 DUP3 MSTORE PUSH1 0x20 DUP3 ADD SWAP1 POP SWAP3 SWAP2 POP POP JUMP JUMPDEST PUSH32 0x4F6E6C792061646D696E2063616E206578656375746500000000000000000000 PUSH1 0x0 DUP3 ADD MSTORE POP JUMP JUMPDEST PUSH1 0x0 PUSH2 0x1613 PUSH1 0x16 DUP4 PUSH2 0x15CC JUMP JUMPDEST SWAP2 POP PUSH2 0x161E DUP3 PUSH2 0x15DD JUMP JUMPDEST PUSH1 0x20 DUP3 ADD SWAP1 POP SWAP2 SWAP1 POP JUMP JUMPDEST PUSH1 0x0 PUSH1 0x20 DUP3 ADD SWAP1 POP DUP2 DUP2 SUB PUSH1 0x0 DUP4 ADD MSTORE PUSH2 0x1642 DUP2 PUSH2 0x1606 JUMP JUMPDEST SWAP1 POP SWAP2 SWAP1 POP JUMP JUMPDEST PUSH32 0x75726C2073686F756C642062652070726F766964656400000000000000000000 PUSH1 0x0 DUP3 ADD MSTORE POP JUMP JUMPDEST PUSH1 0x0 PUSH2 0x167F PUSH1 0x16 DUP4 PUSH2 0x15CC JUMP JUMPDEST SWAP2 POP PUSH2 0x168A DUP3 PUSH2 0x1649 JUMP JUMPDEST PUSH1 0x20 DUP3 ADD SWAP1 POP SWAP2 SWAP1 POP JUMP JUMPDEST PUSH1 0x0 PUSH1 0x20 DUP3 ADD SWAP1 POP DUP2 DUP2 SUB PUSH1 0x0 DUP4 ADD MSTORE PUSH2 0x16AE DUP2 PUSH2 0x1672 JUMP JUMPDEST SWAP1 POP SWAP2 SWAP1 POP JUMP JUMPDEST PUSH32 0x6C6162656C732073686F756C642062652070726F766964656400000000000000 PUSH1 0x0 DUP3 ADD MSTORE POP JUMP JUMPDEST PUSH1 0x0 PUSH2 0x16EB PUSH1 0x19 DUP4 PUSH2 0x15CC JUMP JUMPDEST SWAP2 POP PUSH2 0x16F6 DUP3 PUSH2 0x16B5 JUMP JUMPDEST PUSH1 0x20 DUP3 ADD SWAP1 POP SWAP2 SWAP1 POP JUMP JUMPDEST PUSH1 0x0 PUSH1 0x20 DUP3 ADD SWAP1 POP DUP2 DUP2 SUB PUSH1 0x0 DUP4 ADD MSTORE PUSH2 0x171A DUP2 PUSH2 0x16DE JUMP JUMPDEST SWAP1 POP SWAP2 SWAP1 POP JUMP JUMPDEST PUSH32 0x63617465676F72792073686F756C642062652070726F76696465640000000000 PUSH1 0x0 DUP3 ADD MSTORE POP JUMP JUMPDEST PUSH1 0x0 PUSH2 0x1757 PUSH1 0x1B DUP4 PUSH2 0x15CC JUMP JUMPDEST SWAP2 POP PUSH2 0x1762 DUP3 PUSH2 0x1721 JUMP JUMPDEST PUSH1 0x20 DUP3 ADD SWAP1 POP SWAP2 SWAP1 POP JUMP JUMPDEST PUSH1 0x0 PUSH1 0x20 DUP3 ADD SWAP1 POP DUP2 DUP2 SUB PUSH1 0x0 DUP4 ADD MSTORE PUSH2 0x1786 DUP2 PUSH2 0x174A JUMP JUMPDEST SWAP1 POP SWAP2 SWAP1 POP JUMP JUMPDEST PUSH1 0x0 DUP2 SWAP1 POP SWAP3 SWAP2 POP POP JUMP JUMPDEST PUSH1 0x0 PUSH2 0x17A3 DUP3 PUSH2 0x1325 JUMP JUMPDEST PUSH2 0x17AD DUP2 DUP6 PUSH2 0x178D JUMP JUMPDEST SWAP4 POP PUSH2 0x17BD DUP2 DUP6 PUSH1 0x20 DUP7 ADD PUSH2 0x1341 JUMP JUMPDEST DUP1 DUP5 ADD SWAP2 POP POP SWAP3 SWAP2 POP POP JUMP JUMPDEST PUSH1 0x0 PUSH2 0x17D5 DUP3 DUP5 PUSH2 0x1798 JUMP JUMPDEST SWAP2 POP DUP2 SWAP1 POP SWAP3 SWAP2 POP POP JUMP JUMPDEST PUSH32 0x4E487B7100000000000000000000000000000000000000000000000000000000 PUSH1 0x0 MSTORE PUSH1 0x22 PUSH1 0x4 MSTORE PUSH1 0x24 PUSH1 0x0 REVERT JUMPDEST PUSH1 0x0 PUSH1 0x2 DUP3 DIV SWAP1 POP PUSH1 0x1 DUP3 AND DUP1 PUSH2 0x1827 JUMPI PUSH1 0x7F DUP3 AND SWAP2 POP JUMPDEST PUSH1 0x20 DUP3 LT DUP2 SUB PUSH2 0x183A JUMPI PUSH2 0x1839 PUSH2 0x17E0 JUMP JUMPDEST JUMPDEST POP SWAP2 SWAP1 POP JUMP JUMPDEST PUSH1 0x0 DUP2 SWAP1 POP DUP2 PUSH1 0x0 MSTORE PUSH1 0x20 PUSH1 0x0 KECCAK256 SWAP1 POP SWAP2 SWAP1 POP JUMP JUMPDEST PUSH1 0x0 PUSH1 0x20 PUSH1 0x1F DUP4 ADD DIV SWAP1 POP SWAP2 SWAP1 POP JUMP JUMPDEST PUSH1 0x0 DUP3 DUP3 SHL SWAP1 POP SWAP3 SWAP2 POP POP JUMP JUMPDEST PUSH1 0x0 PUSH1 0x8 DUP4 MUL PUSH2 0x18A2 PUSH32 0xFFFFFFFFFFFFFFFFFFFFFFFFFFFFFFFFFFFFFFFFFFFFFFFFFFFFFFFFFFFFFFFF DUP3 PUSH2 0x1865 JUMP JUMPDEST PUSH2 0x18AC DUP7 DUP4 PUSH2 0x1865 JUMP JUMPDEST SWAP6 POP DUP1 NOT DUP5 AND SWAP4 POP DUP1 DUP7 AND DUP5 OR SWAP3 POP POP POP SWAP4 SWAP3 POP POP POP JUMP JUMPDEST PUSH1 0x0 DUP2 SWAP1 POP SWAP2 SWAP1 POP JUMP JUMPDEST PUSH1 0x0 DUP2 SWAP1 POP SWAP2 SWAP1 POP JUMP JUMPDEST PUSH1 0x0 PUSH2 0x18F3 PUSH2 0x18EE PUSH2 0x18E9 DUP5 PUSH2 0x18C4 JUMP JUMPDEST PUSH2 0x18CE JUMP JUMPDEST PUSH2 0x18C4 JUMP JUMPDEST SWAP1 POP SWAP2 SWAP1 POP JUMP JUMPDEST PUSH1 0x0 DUP2 SWAP1 POP SWAP2 SWAP1 POP JUMP JUMPDEST PUSH2 0x190D DUP4 PUSH2 0x18D8 JUMP JUMPDEST PUSH2 0x1921 PUSH2 0x1919 DUP3 PUSH2 0x18FA JUMP JUMPDEST DUP5 DUP5 SLOAD PUSH2 0x1872 JUMP JUMPDEST DUP3 SSTORE POP POP POP POP JUMP JUMPDEST PUSH1 0x0 SWAP1 JUMP JUMPDEST PUSH2 0x1936 PUSH2 0x1929 JUMP JUMPDEST PUSH2 0x1941 DUP2 DUP5 DUP5 PUSH2 0x1904 JUMP JUMPDEST POP POP POP JUMP JUMPDEST JUMPDEST DUP2 DUP2 LT ISZERO PUSH2 0x1965 JUMPI PUSH2 0x195A PUSH1 0x0 DUP3 PUSH2 0x192E JUMP JUMPDEST PUSH1 0x1 DUP2 ADD SWAP1 POP PUSH2 0x1947 JUMP JUMPDEST POP POP JUMP JUMPDEST PUSH1 0x1F DUP3 GT ISZERO PUSH2 0x19AA JUMPI PUSH2 0x197B DUP2 PUSH2 0x1840 JUMP JUMPDEST PUSH2 0x1984 DUP5 PUSH2 0x1855 JUMP JUMPDEST DUP2 ADD PUSH1 0x20 DUP6 LT ISZERO PUSH2 0x1993 JUMPI DUP2 SWAP1 POP JUMPDEST PUSH2 0x19A7 PUSH2 0x199F DUP6 PUSH2 0x1855 JUMP JUMPDEST DUP4 ADD DUP3 PUSH2 0x1946 JUMP JUMPDEST POP POP JUMPDEST POP POP POP JUMP JUMPDEST PUSH1 0x0 DUP3 DUP3 SHR SWAP1 POP SWAP3 SWAP2 POP POP JUMP JUMPDEST PUSH1 0x0 PUSH2 0x19CD PUSH1 0x0 NOT DUP5 PUSH1 0x8 MUL PUSH2 0x19AF JUMP JUMPDEST NOT DUP1 DUP4 AND SWAP2 POP POP SWAP3 SWAP2 POP POP JUMP JUMPDEST PUSH1 0x0 PUSH2 0x19E6 DUP4 DUP4 PUSH2 0x19BC JUMP JUMPDEST SWAP2 POP DUP3 PUSH1 0x2 MUL DUP3 OR SWAP1 POP SWAP3 SWAP2 POP POP JUMP JUMPDEST PUSH2 0x19FF DUP3 PUSH2 0x1325 JUMP JUMPDEST PUSH8 0xFFFFFFFFFFFFFFFF DUP2 GT ISZERO PUSH2 0x1A18 JUMPI PUSH2 0x1A17 PUSH2 0xEAE JUMP JUMPDEST JUMPDEST PUSH2 0x1A22 DUP3 SLOAD PUSH2 0x180F JUMP JUMPDEST PUSH2 0x1A2D DUP3 DUP3 DUP6 PUSH2 0x1969 JUMP JUMPDEST PUSH1 0x0 PUSH1 0x20 SWAP1 POP PUSH1 0x1F DUP4 GT PUSH1 0x1 DUP2 EQ PUSH2 0x1A60 JUMPI PUSH1 0x0 DUP5 ISZERO PUSH2 0x1A4E JUMPI DUP3 DUP8 ADD MLOAD SWAP1 POP JUMPDEST PUSH2 0x1A58 DUP6 DUP3 PUSH2 0x19DA JUMP JUMPDEST DUP7 SSTORE POP PUSH2 0x1AC0 JUMP JUMPDEST PUSH1 0x1F NOT DUP5 AND PUSH2 0x1A6E DUP7 PUSH2 0x1840 JUMP JUMPDEST PUSH1 0x0 JUMPDEST DUP3 DUP2 LT ISZERO PUSH2 0x1A96 JUMPI DUP5 DUP10 ADD MLOAD DUP3 SSTORE PUSH1 0x1 DUP3 ADD SWAP2 POP PUSH1 0x20 DUP6 ADD SWAP5 POP PUSH1 0x20 DUP2 ADD SWAP1 POP PUSH2 0x1A71 JUMP JUMPDEST DUP7 DUP4 LT ISZERO PUSH2 0x1AB3 JUMPI DUP5 DUP10 ADD MLOAD PUSH2 0x1AAF PUSH1 0x1F DUP10 AND DUP3 PUSH2 0x19BC JUMP JUMPDEST DUP4 SSTORE POP JUMPDEST PUSH1 0x1 PUSH1 0x2 DUP9 MUL ADD DUP9 SSTORE POP POP POP JUMPDEST POP POP POP POP POP POP JUMP JUMPDEST PUSH1 0x0 PUSH2 0x1AD3 DUP3 PUSH2 0x1325 JUMP JUMPDEST PUSH2 0x1ADD DUP2 DUP6 PUSH2 0x15CC JUMP JUMPDEST SWAP4 POP PUSH2 0x1AED DUP2 DUP6 PUSH1 0x20 DUP7 ADD PUSH2 0x1341 JUMP JUMPDEST PUSH2 0x1AF6 DUP2 PUSH2 0xE9D JUMP JUMPDEST DUP5 ADD SWAP2 POP POP SWAP3 SWAP2 POP POP JUMP JUMPDEST PUSH1 0x0 PUSH1 0x20 DUP3 ADD SWAP1 POP DUP2 DUP2 SUB PUSH1 0x0 DUP4 ADD MSTORE PUSH2 0x1B1B DUP2 DUP5 PUSH2 0x1AC8 JUMP JUMPDEST SWAP1 POP SWAP3 SWAP2 POP POP JUMP JUMPDEST PUSH32 0x616464726573732073686F756C642062652070726F7669646564000000000000 PUSH1 0x0 DUP3 ADD MSTORE POP JUMP JUMPDEST PUSH1 0x0 PUSH2 0x1B59 PUSH1 0x1A DUP4 PUSH2 0x15CC JUMP JUMPDEST SWAP2 POP PUSH2 0x1B64 DUP3 PUSH2 0x1B23 JUMP JUMPDEST PUSH1 0x20 DUP3 ADD SWAP1 POP SWAP2 SWAP1 POP JUMP JUMPDEST PUSH1 0x0 PUSH1 0x20 DUP3 ADD SWAP1 POP DUP2 DUP2 SUB PUSH1 0x0 DUP4 ADD MSTORE PUSH2 0x1B88 DUP2 PUSH2 0x1B4C JUMP JUMPDEST SWAP1 POP SWAP2 SWAP1 POP JUMP JUMPDEST PUSH32 0x737562547970652073686F756C642062652070726F7669646564000000000000 PUSH1 0x0 DUP3 ADD MSTORE POP JUMP JUMPDEST PUSH1 0x0 PUSH2 0x1BC5 PUSH1 0x1A DUP4 PUSH2 0x15CC JUMP JUMPDEST SWAP2 POP PUSH2 0x1BD0 DUP3 PUSH2 0x1B8F JUMP JUMPDEST PUSH1 0x20 DUP3 ADD SWAP1 POP SWAP2 SWAP1 POP JUMP JUMPDEST PUSH1 0x0 PUSH1 0x20 DUP3 ADD SWAP1 POP DUP2 DUP2 SUB PUSH1 0x0 DUP4 ADD MSTORE PUSH2 0x1BF4 DUP2 PUSH2 0x1BB8 JUMP JUMPDEST SWAP1 POP SWAP2 SWAP1 POP JUMP INVALID LOG2 PUSH5 0x6970667358 0x22 SLT KECCAK256 DIV 0xB9 0xBD 0xD0 0xB3 BLOCKHASH DUP2 SELFBALANCE LOG1 0xA9 TLOAD LOG1 BLOBBASEFEE EXTCODEHASH 0x23 0xFB EXP 0xD2 JUMP PUSH21 0x60B9B122C9C9607C1067171A64736F6C6343000818 STOP CALLER "
        },
        "methodIdentifiers": {
          "admin()": "f851a440",
          "checCryptokAddr(address)": "c1c6a1a9",
          "checkAddr(string)": "b020c8f4",
          "setAddrData(string,string[],string,string)": "171cb379",
          "setAdmin(address)": "704b6c02",
          "setCryptoAddrData(address,string[],string,string)": "4a492795"
        }
      }
    }
  }
}